:020000040800F2
:10000000709D002081020008CB3100082F2C0008D1
:10001000C9310008C9030008A74B00080000000010
:10002000000000000000000000000000C101000806
:100030004D050008000000001D020008F131000815
:100040009B0200089B0200089B0200089B0200081C
:100050009B0200089B0200089B0200089B0200080C
:100060009B0200089B0200089B0200089B020008FC
:100070009B0200089B0200089B0200089B020008EC
:100080009B0200089B0200089B0200089B020008DC
:100090009B0200089B0200089B0200089B020008CC
:1000A0009B0200089B0200089B0200089B020008BC
:1000B0009B0200089B0200089B0200089B020008AC
:1000C0009B0200089B0200089B0200089B0200089C
:1000D0009B0200089B0200089B0200089B0200088C
:1000E0009B0200089B0200089B0200089B0200087C
:1000F0009B0200089B0200089B0200089B0200086C
:100100009B0200089B0200089B0200089B0200085B
:100110009B0200089B020008D13200089B020008E5
:100120009B0200089B0200089B0200089B0200083B
:100130009B0200089B0200089B0200089B0200082B
:100140009B0200089B0200089B0200089B0200081B
:100150009B0200089B0200089B0200089B0200080B
:100160009B0200089B0200089B0200089B020008FB
:100170009B020008CD3100089B020008000000002F
:100180009B0200089B0200089B0200089B020008DB
:100190009B0200089B0200089B0200089B020008CB
:1001A000312C00089B020008F1040008DFF80CD095
:1001B00000F0ECF800480047394C0008709D002022
:1001C0002C4B19680868B0E8F04F80F30988BFF33A
:1001D0006F8F4FF0000080F311887047000000001F
:1001E00008480068006880F308884FF0000080F33A
:1001F000148862B661B6BFF34F8FBFF36F8F00DF15
:1002000000BF00BF08ED00E0DFF80C00016841F41A
:1002100070010160704700BF88ED00E0EFF30980D6
:10022000BFF36F8F134B1A681EF0100F08BF20ED3D
:10023000108A20E9F04F106009B44FF0500080F3AD
:100240001188BFF34F8FBFF36F8F05F0D3FC4FF0D2
:10025000000080F3118809BC19680868B0E8F04F05
:100260001EF0100F08BFB0EC108A80F30988BFF3AE
:100270006F8F70472C000020EFF30580704700005F
:100280000648804706480047FEE7FEE7FEE7FEE730
:10029000FEE7FEE7FEE7FEE7FEE7FEE7C132000805
:1002A000AD0100082DE9F05F0546002092469B460F
:1002B00088460646814640241BE02846414647467C
:1002C000224600F053F853465A46C01A914110D3C3
:1002D00011461846224600F03AF82D1A67EB01083D
:1002E0004F4622460120002100F031F817EB0009AB
:1002F0004E41201EA4F10104DFDC484631462A4667
:100300004346BDE8F09F40EA01039B0703D009E0A4
:1003100008C9121F08C0042AFAD203E011F8013BF1
:1003200000F8013B521EF9D27047D2B201E000F84A
:10033000012B491EFBD270470022F6E710B5134689
:100340000A4604461946FFF7F0FF204610BD202A52
:1003500004DB203A00FA02F1002070479140C2F11C
:10036000200320FA03F3194390407047202A04DB4E
:10037000203A21FA02F00021704721FA02F3D0401E
:10038000C2F120029140084319467047064C074DC0
:1003900006E0E06840F0010394E807009847103455
:1003A000AC42F6D3FFF706FFD8670008F8670008ED
:1003B0000349044A31F8101052F8200000F02ABC1A
:1003C000B8670008DC000020FEE770B50546D0F8ED
:1003D0007C030426C46994F84E0003281AD004282C
:1003E00020D1217B284603F0B3FD01281AD1217BBF
:1003F000284603F098FDA16A814214D0628B8242A4
:1004000011D2091AA162216A08442062032084F8EB
:100410004E000EE0237B628B2846216A03F09AF897
:1004200084F84E6070BD002084F84E00284603F02A
:10043000F5F9C5F8E06305F57871D5F8D803BDE89E
:10044000704000231A4604F017BD2DE9F843054615
:10045000D0F87C030126C46994F84D0001281AD015
:10046000022826D1617B284603F072FD042705F59A
:100470007871884601281ED002281AD184F84D6070
:10048000C5F8E0730023D5F8D8031A4601B0BDE8DB
:10049000F04304F0F1BC228B606A0096637B9042CB
:1004A00000D882B22846E16903F064F8022084F89B
:1004B0004D00BDE8F883208B626A0021824208D992
:1004C000121A6262E3691844E06103D084F84D6057
:1004D00005E0616284F84D10284603F0A2F9C5F8E2
:1004E000E07300231A464146D5F8D803CEE7000052
:1004F000014800F01BB90000EC00002010B50022FC
:100500004FEA020100EB8203521CC3F884130F2A46
:10051000F8D300224FF400738418521C84F81C1185
:100520009A42F9D30170417001228270C0F8C4135D
:10053000027640238371417680F81C1380F81D23D6
:1005400080F81F1380F81E13002010BD704772B68C
:10055000FEE730B5D1E901231A43D1E903352B4336
:100560001A434B690C681A438B691A43D1E9073562
:10057000012C496A046807D01A432A436FF30E041A
:100580000A43224302600AE024F4F8442B43214347
:100590000B43416803606FF30E010A434260002081
:1005A00030BD0000F0B56FF00F05D1E9003405EB68
:1005B00004145B1E23432E018C682F0306EB0424D6
:1005C00023434FEA054C0C8A8E8ACD68097E4FF092
:1005D0007F4E07EB04440CEB06560EEB0161012A3B
:1005E0000CD082683F1107EB05352B43234333437F
:1005F00002F070420B43134383600FE08768084AA0
:1006000017402A03A2F580523243C5683A43234378
:1006100005F070450B432B438260C3600020F0BDA2
:10062000FF0F0FFFA1220274212242740022428296
:1006300082820722C28203F018B910B5040002D0EA
:10064000607910B106E0012010BD00202071204625
:1006500000F004F801206071002010BD08B50068AA
:100660000649884208D10648016841F4805101607A
:10067000006800F48050009008BD00000030024087
:10068000303802407047000070B590F83820012AD9
:1006900024D0012680F83860022280F8392000EB4F
:1006A0000112148CD369183243EA04451E4C0A2BFC
:1006B00016D0092B14D0137B45EA03630029016887
:1006C00013D0CD69A5431D43CD610368116819613D
:1006D00051680A291BD0092919D01DE0022070BDDC
:1006E000D36803F07F432B43E8E74D6AA5431D43DE
:1006F0004D6203681168996151680A2901D009297E
:100700000AD1D168026821F07F41916204E0D1688A
:10071000026821F07F41116280F83960002180F881
:100720003810084670BD00000F0003FF2DE9F047A8
:100730000446006846680568F1074FF004084FF06A
:1007400000074FF0010914D0E90512D5016821F422
:1007500080710160E06B40F00100E0632168C1F846
:10076000089084F8398084F83870616909B12046AE
:100770008847B00615D5A80413D52068016821F470
:1007800000510160216820208860E06B40F0020089
:10079000E06384F8398084F83870616909B12046D3
:1007A0008847300715D5280513D52068016821F43E
:1007B00000610160216808208860E06B40F004005F
:1007C000E06384F8398084F83870616909B12046A3
:1007D000884770070CD568050AD52068016821F4A0
:1007E000806101602168C1F80880204600F05AF855
:1007F000B00713D5A80511D52068016821F4007150
:100800000160216802208860E06BE06384F8399021
:1008100084F83870216909B120468847F00612D55E
:10082000E80410D52068016821F480510160216836
:1008300010208860E06BE06384F8399084F83870A9
:100840002046FFF71FFFBDE8F08770B5040004D015
:1008500094F83900002510B106E0012070BD84F83D
:100860003850204600F020F8022084F83900206833
:100870000168626821F44031114301602068416BD6
:10088000A26821F00701114341632068016CE2680E
:100890006FF30D0111430164E563012084F8390011
:1008A000002070BD7047000008B500680B49884201
:1008B00012D10B48016841F4000101600068002278
:1008C00000F40000009005215A2000F063FFBDE80D
:1008D00008405A2000F050BF08BD000000B00240A0
:1008E0003038024070B5044600F0A2F90546601C9D
:1008F00002D004480078044400F09AF9401BA0425A
:10090000FAD370BD1C0000202DE9F04186B01421FF
:100910006846FFF711FD2B48016800294FD14FF0C1
:100920000108C0F8008028480024016841F0010156
:1009300001600068022500F0010005904FF63F00BD
:10094000CDE9000502AA03260C2782E8D0006946FB
:100950001E4800F047F802AA694682E8D000CDE9B7
:1009600000851B4800F03EF848F23310CDE9000541
:1009700002AA694682E8D000164800F033F84FF624
:100980008370CDE9000502AA694682E8D0001248CA
:1009900000F028F84CF20370CDE9000502AA694680
:1009A00082E8D0000D4800F01DF86020CDE9000578
:1009B00002AA694682E8D000094800F013F806B0A0
:1009C000BDE8F081140000203838024000140240D5
:1009D000000802400018024000100240000C0240D3
:1009E000000402402DE9F84FDFF8F4A100220124B1
:1009F0000AF1040B03254FF00F090BF1040E00BFA1
:100A00000B6804FA02F63340B3426FD10F7907F056
:100A10000307012F01D0022F16D187684FEA420841
:100A200005FA08FC27EA0C07D1F80CC00CFA08FC00
:100A30004CEA070CC0F808C04768B7430E79C6F304
:100A4000001696403E4346600E79F643B6070AD03C
:100A5000C7684FEA420C05FA0CF6B7438E6806FAEF
:100A60000CF63E43C6600E7906F00306022E10D146
:100A7000D60800EB8608D8F8206057074FEAD76CF5
:100A800009FA0CF7BE430F6907FA0CF73743C8F8A9
:100A9000207006684FEA420C05FA0CF7BE430F7946
:100AA00007F0030707FA0CF7374307604E68F600B4
:100AB0001CD54C4E376847F480473760366822F0C3
:100AC000030706F480460096474E07EB060CDCF859
:100AD000086897073F0F09FA07F826EA0806DFF8C3
:100AE0000C81404503D14FF0000841E072E0DFF88F
:100AF0000081404502D14FF0010839E0DFF8F48071
:100B0000404502D14FF0020832E0DFF8EC8040456A
:100B100002D14FF003082BE0DFF8E080404502D11E
:100B20004FF0040824E0DFF8D880404502D14FF0B0
:100B300005081DE0DFF8CC80404502D14FF00608E3
:100B400016E0DFF8C480404502D14FF007080FE0FF
:100B5000DFF8B880404502D14FF0080808E0DFF820
:100B6000B080404502D14FF0090801E04FF00A087B
:100B700008FA07F848EA0608CCF80888DAF80060AE
:100B80005746D1F804C09E435FEACC3C00D51E43D3
:100B90003E60DBF800605F46D1F804C09E435FEA28
:100BA0008C3C00D51E433E60DEF800607746D1F8ED
:100BB00004C09E435FEACC2C00D51E433E60084F24
:100BC0000C373E68D1F804C09E435FEA8C2C00D5F8
:100BD0001E433E60521C102AFFF412AFBDE8F88F8E
:100BE000003C014044380240003001400000024017
:100BF0000004024000080240000C024000100240C5
:100C00000014024000180240001C02400020024074
:100C100000240240426921EA02030A4043EA0241F9
:100C2000816170470AB1816170470904FBE70000E8
:100C300001488068704700001C000020D0F80003C5
:100C400003F02FB9D0F8000303F040B9006803F0B7
:100C5000F1BC006803F0F2BC01EB410202EBC10100
:100C600000EB810090F86000704701EB410202EB5D
:100C7000C10100EB8100006D704710B5044690F88B
:100C8000F802012809D0012084F8F802206803F056
:100C9000E0FC002084F8F80210BD022010BD2DE910
:100CA000FE430546DDE90B7095F8F842DDF828C0F3
:100CB000012C1ED001EB410404EBC1044FF00109EB
:100CC00005EB840485F8F892002684F83D6084F8EA
:100CD0003830A4F8400084F8391084F83F7002F0EE
:100CE0007F0884F83A805FEA026805D584F83B9073
:100CF00004E00220BDE8FE8384F83B6084F83CC039
:100D0000CDF800C0CDE90170286803F00FFD85F82B
:100D1000F862EFE7D0F8000303F058B92DE9F003CB
:100D200001EB4104DDE906C9DDE9087504EBC10406
:100D300000EB8404022684F83B2084F83F30BCF1A9
:100D4000000F0AD084F8426000256BB1012B2FD030
:100D5000022B12D0032B16D10FE04FF0030884F8BA
:100D6000428084F83D50EFE7BCF1010F0BD152B93E
:100D7000DFB9012284F8552003E0B2B194F8542081
:100D8000B2B184F84260C4F84490E76484F86050DB
:100D9000256584F8391084F86150027C04F138012B
:100DA0000068BDE8F00303F042BD94F85520E7E782
:100DB00084F84250E7E72DE9F04104460068064612
:100DC00003F043FC01287DD1206803F058FE002881
:100DD00078D0206803F053FE800203D521684FF4D9
:100DE00000104861206803F04AFEC00203D5216864
:100DF0004FF480104861206803F041FE400103D5A4
:100E000021684FF080604861206803F038FE800759
:100E100002D5216802204861206803F030FE80007E
:100E20000ED521684FF000504861D6F84004C00745
:100E300006D12046FFF706FF0121206803F004FEDB
:100E4000206803F01CFEC00102D5204601F05FFEC1
:100E5000206803F014FE000705D5204600F0CBF80B
:100E6000216808204861206803F009FEC043C006DD
:100E70000CD42068816921F010018161204601F0C5
:100E800090FE2068816941F010018161206803F0C3
:100E9000F6FD800124D5206803F0C5FC0746002537
:100EA0004FF0010815E005F00F0108FA01F0384293
:100EB0000ED006EB4510D0F80005E9B2000420463C
:100EC00004D500E00CE001F097FB01E001F0D2FC5A
:100ED0006D1CA068A842E6D821684FF000704861F8
:100EE000BDE8F08170B58AB0040005D094F8F9022D
:100EF0002568002618B107E001200AB070BD84F80B
:100F0000F862204600F028F8032084F8F902E86B24
:100F1000C00500D42661206803F036FB04F11001FF
:100F200028220D466846FFF7EEF994E80F0003F01B
:100F3000D5FA0121206803F0CDFD28222946684614
:100F4000FFF7E1F994E80F0003F012FD012084F8A7
:100F5000F9020020D1E7000070B586B004461421E4
:100F60006846FFF7E9F91B492068884230D11A4CDE
:100F70000025206840F0020020602068174E00F035
:100F8000020005904FF4504000900220CDE9010589
:100F90000C20CDE9035069463046FFF723FD4FF49E
:100FA0000050CDE90005694630460295FFF71AFD6D
:100FB000206840F0005020602068002200F00050BF
:100FC000059005214D2000F0E5FB4D2000F0D4FBFD
:100FD00006B070BD000004403038024000040240FA
:100FE000D0F8000303F00FB8D0F8000303F00FB8F7
:100FF000006803F056BDD0F8000302F0ADBF10B595
:10100000044690F8F80201280DD0012084F8F80277
:10101000206803F0E7FA0121206803F0CDFA0020F0
:1010200084F8F80210BD022010BD10B5044690F8F7
:10103000F802012809D0012084F8F802206803F0A2
:1010400061FD002084F8F80210BD022010BD90F868
:101050003D20202A01D002207047242280F83D2024
:101060000268136823F0010313600268536A23F0D7
:10107000100353620268536A0B43536201680A68A3
:1010800042F001020A60202180F83D1000207047E4
:1010900090F83D20202A01D002207047242280F8B9
:1010A0003D200268136823F00103136003685A6A45
:1010B00022F00F020A4391B2596201680A6842F0B5
:1010C00001020A60202180F83D10002070470000D6
:1010D00070B5040025D094F83D00002520B984F8AF
:1010E0003C50204600F0B8F8242084F83D002068E9
:1010F000016821F0010101602068016841F40041AC
:1011000001602068016821F40041016000F058FD91
:101110004D4A6168914201D84C4900E04C498842EF
:1011200001D2012070BD4B492368B0FBF1F15E682C
:1011300026F03F060E435E606368934206D94FF483
:10114000967359434FF47A73B1FBF3F12368491C4A
:101150001E6A26F03F06314319626168914210D839
:101160004900401EB0FBF1F2521CC2F30B02042AEC
:1011700001D2042022E0B0FBF1F0401CC0F30B00D0
:101180001CE0A268F2B301EBC10303EB0116431E9E
:10119000B3FBF6F35B1C43F480431B0549D092B3C9
:1011A00001EBC10202EB0111401EB0FBF1F0401C4B
:1011B000C0F30B0040F4804040F400402168CA694D
:1011C0004CF6FF739A431043C861D4E907100143FA
:1011D0002068026822F0C00211430160D4E90301D3
:1011E00001432068826848F2FF339A4311438160CB
:1011F000D4E9050108432168CA6822F0FF021043C0
:10120000C86001E00EE016E02068016841F00101CD
:1012100001602564202084F83D00256384F83E5059
:10122000002070BD01EB4106431EB3FBF6F35B1CCF
:10123000B3E70120C2E701EB4101401EB0FBF1F032
:10124000401CC0F30B00B7E7A086010080841E009D
:1012500000093D0040420F00F0B587B0044614215C
:101260006846FFF769F81C492068884231D11B485D
:101270000024016841F004010160016801F00401EB
:101280000591016841F0010101600068122500F03C
:10129000010005904FF4007001268DE861000427DD
:1012A000CDE9034769460E48FFF79CFB30028DE805
:1012B0006100CDE9034769460A48FFF793FB0748F9
:1012C0001030016841F400010160006800F4000082
:1012D000059007B0F0BD0000005C004030380240CF
:1012E0000008024000000240024881680278114470
:1012F000816070471C0000200B4810B5016841F464
:1013000000710160016841F480610160016841F48D
:1013100080710160032000F05DFA002000F006F803
:1013200000F00EFA002010BD003C024010B501464E
:1013300088B00022362000F02DFA362000F01CFA8A
:1013400013480024016841F010010160006805A9FC
:1013500000F010000690684600F012FC00F030FC2F
:101360000C494000B0FBF1F10C480B4A491E0260E9
:1013700040F2E732C0E90324C0E9011400F026FF7F
:1013800010B1012008B010BD044800F061FFF9E77A
:101390004038024040420F0000100040280A002060
:1013A0002DE9F041044690F8A00016460F460128AA
:1013B0001DD0012584F8A050022084F8A10006EB7E
:1013C000860000EBC60004EB800034223830FEF7C4
:1013D0009AFF32463946204601F030FC20684562CB
:1013E00084F8A150002084F8A000BDE8F08102201C
:1013F000FBE770472DE9F04104460068856B466BBA
:1014000069074FF004084FF0000715D5710713D591
:10141000416B21F0040141632168C1F83C80D4F89C
:10142000A41041F00101C4F8A41084F8A18084F84C
:10143000A0702046FFF7DDFFA80716D5B00714D52A
:101440002068416B21F00201416321680220C863DA
:10145000D4F8A40040F00200C4F8A40084F8A180ED
:1014600084F8A0702046FFF7C4FF05EA0600C00715
:101470004FF001080ED02068416B21F0010141635B
:101480002168C1F83C8084F8A18084F8A0702046CF
:1014900000F090F8280710D530070ED52068416B72
:1014A00021F00801416321680820C86384F8A18005
:1014B00084F8A070204600F041F9BDE8F0810000FA
:1014C00070B5040004D094F8A100002510B106E026
:1014D000012070BD84F8A050204600F06DF8022075
:1014E00084F8A1002068816921F070418161D4E90C
:1014F00001010843D4E903121143084321688A69B2
:101500001043886121688A68294802408A60A18A5C
:101510000A0421688B68A669334313438B602168F2
:10152000CA680240CA60A18B0B042168CA68266A97
:1015300032431A43CA6021680A6902400A61A18CD9
:1015400022680B041169A66A3143194311612168AD
:101550004A6902404A61A08D010420684269236BF8
:101560001A430A43426194F835002168020294F854
:101570003600CB6A03F07F43CB622168CB6A94F8D4
:10158000346042EA004033430343CB622068416B3E
:1015900041F0060141632068816941F001018161E8
:1015A000C4F8A450012084F8A100002070BD000000
:1015B00000F800F0704700002DE9F04186B00446C5
:1015C00014216846FEF7B8FE5449206888427CD151
:1015D00053480024016841F080610160006800F018
:1015E000806005904E481438016841F02001016088
:1015F000016801F020010591016841F001010160DD
:10160000016801F001010591016841F002010160EA
:10161000016801F002010591016841F0400101609B
:10162000016801F040010591016841F00401016089
:10163000016801F004010591016841F008010160B1
:101640000068022500F0080005904FF480600090CB
:10165000CDE901540E26CDE9034669463148FFF72E
:10166000C1F941F658000090CDE90154CDE9034697
:1016700069462D48FFF7B6F903200090CDE90154E3
:101680000927DFF8A880CDE9034769464046FFF700
:10169000A9F94FF470600090CDE90154CDE90346FB
:1016A00069464046FFF79EF94FF40C600090CDE983
:1016B0000154DFF87C80CDE9034669464046FFF7D8
:1016C00091F94FF49860009000E024E0CDE90154D6
:1016D000CDE9034669461748FFF784F94820009092
:1016E000CDE90154CDE9034669461348FFF77AF97D
:1016F0004FF4A0500090CDE90154CDE9034769466D
:101700004046FFF76FF900220521582000F042F80B
:10171000582000F031F806B0BDE8F08100680140C3
:10172000443802400014024000000240000402401D
:101730000018024000080240000C02407047000000
:101740000C4882B0016841F480410160006800F4F7
:10175000804000900748001F016841F080510160FF
:101760000068002200F0805000900F21901E02B00F
:1017700000F010B844380240002809DB00F01F02D6
:10178000012191404009800000F1E020C0F80011E3
:1017900070470000F0B40E4B1B680C46C3F30223E5
:1017A000C3F10705042D00D90425191D072901D20D
:1017B000002300E0DB1E012606FA05F1491E214048
:1017C00099409E40761E16403143F0BC03F0ECB9C0
:1017D0000CED00E0064900F0070208684FF6FF0331
:1017E000184040EA0220034A104308607047000096
:1017F0000CED00E00000FA052DE9F84F0446006802
:10180000DFF824A2894F8A4DC1074FF001084FF03D
:10181000000603D1810701D4400648D5CAF86860A4
:10182000FFF706FA814605E0FFF702FAA0EB090090
:1018300002287DD828680001F6D42078C1077D48A9
:1018400005D06168227A890141EA0271016021783C
:10185000890711D501686268237B9201C1F3027187
:1018600042EA036242EA017101603968E26921F0EB
:101870001F01521E114339602178490608D561685D
:10188000227B890141EA0261227A41EA0271016008
:10189000CAF86880FFF7CCF9814605E0FFF7C8F980
:1018A000A0EB0900022843D828680001F6D520687B
:1018B000410701D400074ED5CAF87060FFF7B8F9A8
:1018C000814605E0FFF7B4F9A0EB090002282FD804
:1018D0002868C0438000F5D520784107564814D5C4
:1018E00001682269237D9201C1F3027142EA036219
:1018F00042EA017101603968226A6FF0FF0321F446
:10190000F85103EB0222114339602178090712D5FF
:1019100001682269C1F30361920142EA0161227EFA
:1019200041EA027101603868616A20F4403000E0E9
:1019300051E008433860CAF87080FFF779F907462C
:1019400005E000BFFFF774F9C01B022843D82868E0
:10195000C0438000F6D42078800653D53448403008
:10196000016841F0805101600068344D00F0805002
:101970000090286840F480702860FFF759F9074606
:1019800005E000BFFFF754F9C01B022823D82868E0
:10199000C005F7D5274D143D286810F4407020D0BD
:1019A000218D01F4407181421BD0286820F44071E0
:1019B0002348C0F80080066029602868C00710D05E
:1019C000FFF736F9064641F2883707E0FFF730F9AE
:1019D000801BB84202D90320BDE8F88F2868800731
:1019E000F4D5A16A1248C1F301220830032A13D0AA
:1019F000016821F4F81101602868218DC1F30B0101
:101A0000084328602078C00604D50E4994F82C00BD
:101A1000C1F8E0010020DFE702680B4B22F4F81266
:101A200019400A430260E7E7000047428C38024051
:101A3000003802408438024088380240007000407C
:101A4000400E474200104742FFFCFF0F2DE9F047D0
:101A50000E46050065D0DFF81481D8F80000F7B213
:101A600000F00F00B04207D288F80070D8F80000EC
:101A700000F00F00B04254D128683D4C810712D5C8
:101A8000400703D5206840F4E05020602878000724
:101A900003D5206840F4604020602068A96820F0E9
:101AA000F000084320602878C0072DD030496868CE
:101AB0000839012812D0022813D0032811D0096850
:101AC000890700292DDA216821F0030101432160F3
:101AD000FFF7AEF8814641F2883A0EE009688903C3
:101AE000EFE709688901ECE7FFF7A2F8A0EB09012D
:101AF000514502D90320BDE8F0872068696800F0ED
:101B00000C00B0EB810FEFD1D8F80010404601F087
:101B10000F01B14207D90770006800F00F00B04212
:101B200001D00120E7E72878400705D52068E9685B
:101B300020F4E050084320602878000706D520688C
:101B4000296920F4604040EAC100206000F058F8A4
:101B50002168084AC1F30311515CC8400649086076
:101B600006480068FFF7E2FB0020C4E7003C0240A3
:101B7000083802409C670008280000202000002050
:101B80000F2202600C4A136803F0030343601368DA
:101B900003F0F0038360136803F4E053C36012683A
:101BA0004FF4E05303EAD20202610448006800F0F7
:101BB0000F0008607047000008380240003C0240F7
:101BC0000448054900680968044AC1F38221515C50
:101BD000C84070472800002008380240AC67000861
:101BE0000448054900680968044AC1F34231515C60
:101BF000C84070472800002008380240AC67000841
:101C0000154810B5006810F00C02144813D04110AC
:101C1000042A0FD0082A0ED10F4C241F22682368F3
:101C200002F03F025B0207D52068C0F38810A0FBDA
:101C3000010106E0084610BD2168C1F38811A1FB2F
:101C400000010023FEF72EFB2168C1F30141491C6E
:101C50004900B0FBF1F010BD083802400024F40048
:101C60002DE9F84F04006ED02078DFF84C93C007C0
:101C7000A9F104054AD009F104000168C1F381010A
:101C8000012908D00068C0F3810002280AD1D9F8E0
:101C90000000400206D52868800337D56068002818
:101CA000E1D033E06068B0F5803F10D0B0F5A02FF0
:101CB000286810D020F480302860286820F4802024
:101CC00028606068A8B1FEF7B3FF06460DE02868FB
:101CD00040F48030F4E740F480202860F7E700BF4C
:101CE000FEF7A6FF801B642873D828688003F7D509
:101CF0000CE0FEF79DFF064605E000BFFEF798FFEB
:101D0000801B6428F0D828688003F7D42078DFF897
:101D1000AC8280074FF0000A3ED5A748001D01683D
:101D200011F00C0F08D00068C0F3810002280BD11D
:101D3000D9F80000400207D42868800716D5E0686B
:101D4000012800D112E033E1E068B8B10120C8F801
:101D50000000FEF76DFF064605E000BFFEF768FFD6
:101D6000801B0228C0D828688007F7D52868216919
:101D700020F0F80040EAC10028600DE0C8F800A09B
:101D8000FEF756FF064604E0FEF752FF801B0228CE
:101D90001FD828688007F7D42078000722D5864FFF
:101DA00087486169703771B101210160FEF740FF1A
:101DB000064604E0FEF73CFF801B022809D838687D
:101DC0008007F7D50EE0C0F800A0FEF731FF064609
:101DD00005E082E0FEF72CFF801B02287DD83868E2
:101DE0008007F7D42078400768D5DFF8CCB100270A
:101DF0000BF13C0BDBF80000C0000BD4DBF800104B
:101E000041F08051CBF80010DBF80000012700F012
:101E1000805000906B4E3068C00510D4306840F49C
:101E200080703060FEF704FF009005E0FEF700FFD1
:101E30000099401A022850D83068C005F6D55E4E89
:101E4000A0686C3601280FD00528306810D020F02B
:101E500001003060306820F004003060A068B8B144
:101E6000FEF7E6FE00900FE0306840F00100F4E776
:101E700040F004003060F7E7FEF7DAFE0099411AFF
:101E800041F28830814266D830688007F4D50EE090
:101E9000FEF7CEFE009007E0FEF7CAFE0099411A59
:101EA00041F28830814256D830688007F4D42FB18F
:101EB000DBF8001021F08051CBF80010A069C8B306
:101EC0003D49091D0968C1F3810102294AD0022850
:101ED000504607D0C8F8600000E03CE0FEF7A8FEDE
:101EE00004463BE04746C8F86000FEF7A1FE064600
:101EF00005E000BFFEF79CFE801B02282BD8286857
:101F00008001F7D4D4E907010843A16A2E4A4908A1
:101F100002EB0141626A41EA8211084394F82C10F5
:101F200040EA0161C9F8001001203866FEF780FE22
:101F3000044606E03EE000BFFEF77AFE001B0228E2
:101F400009D828688001F7D534E000BFFEF770FE9D
:101F5000001B022802D90320BDE8F88F2868800101
:101F6000F4D427E00128F7D0D9F80000E26900F4A2
:101F7000800191421CD1226A00F03F01914217D1A9
:101F800047F6C071626A0140B1EB821F10D1A26AAC
:101F90004FF0FF3300F4403103EB5202B1EB024F3C
:101FA00006D194F82C1000F07060B0EB016F01D0F6
:101FB0000120D1E70020CFE704380240000047426B
:101FC000800E4742007000400000FFFF70B50D46D4
:101FD000040003D094F82C0010B107E0012070BD7C
:101FE000002084F82D00204600F011F8022084F82B
:101FF0002C00211D2068FEF7ACFAD4E90002294626
:10200000FEF7D0FA012084F82C00002070BDFEF706
:102010007BBC70B5040009D0606A002540B1256121
:102020006561A56294F8510040B10CE0012070BDDB
:102030006068B0F5827FF4D0E561F2E784F8505033
:10204000204600F045F8022084F85100206801681D
:1020500021F040010160A088218900F4827001F420
:1020600004410843A18901F400610843217C01F087
:1020700002010843217D01F001010843218B01F495
:1020800000710843217F01F03801084394F82010C3
:1020900001F080010843218D01F4005108432168BB
:1020A0000860A069042101EA104094F8241001F0AE
:1020B00010010843216848602068C16921F400616B
:1020C000C1616565012084F85100002070BD0000E9
:1020D00010B586B0044614216846FEF72DF9134961
:1020E0002068884220D112480021026842F4801200
:1020F0000260006800F4801005900D4814380268F2
:1021000042F020020260006800F0200005904FF4C9
:10211000607000900220CDE901010520CDE9031097
:1021200069460448FEF75EFC06B010BD0050014051
:1021300044380240001402407047704770B590F870
:102140003C20012A32D0012480F83C40022280F851
:102150003D2003685A689D6822F070060A68324381
:102160005A60134B02689A4214D0B2F1804F11D0DA
:10217000104B9A420ED0104B9A420BD00F4B9A4202
:1021800008D00F4B9A4205D00E4B9A4202D00E4B0C
:102190009A4204D1496825F080031943916080F880
:1021A0003D40002180F83C10084670BD022070BD03
:1021B000000001400004004000080040000C004006
:1021C00000040140004001400018004010B5040028
:1021D00003D094F83D0010B107E0012010BD0020AD
:1021E00084F83C00204600F01FF8022084F83D00EF
:1021F000211D206801F072F8012084F8460084F85F
:102200003E0084F83F0084F8400084F8410084F8E0
:10221000420084F8430084F8440084F8450084F8C0
:102220003D00002010BD000008B500680649884246
:1022300008D10648016841F001010160006800F022
:102240000100009008BD0000000001404438024039
:1022500090F83D10012901D001207047022180F83B
:102260003D100168CA6842F00102CA600068114965
:10227000884214D0B0F1804F11D00F4988420ED05F
:102280000E4988420BD00E49884208D00D49884239
:1022900005D00D49884202D00C49884204D181689A
:1022A00001F00701062903D0016841F00101016036
:1022B000002070470000014000040040000800407A
:1022C000000C0040000401400040014000180040A4
:1022D00070B5044690F83C00012817D0012584F819
:1022E0003C50022084F83D002068826822F077028A
:1022F00022F47F4282600868502830D00DDC20280C
:102300004DD005DC98B310283BD148E0022070BDC9
:10231000302844D0402834D139E0602828D07028B3
:1023200006D0B0F5805F2CD0B0F5005F29D10AE06F
:10233000CB68D1E90121206801F034F82068816878
:1023400041F0770109E0CB68D1E90121206801F073
:1023500029F82068816841F48041816011E0CA68F1
:102360004968206801F030F85021206807E016E045
:10237000CA684968206801F038F86021206801F0D7
:102380001BF884F83D50002084F83C0070BDCA68FA
:102390004968206801F018F840212068EFE72268BA
:1023A00001461046EBE7704770B5044600680169C6
:1023B0004FF00005C943890715D4C168C94389078F
:1023C00011D4E91E0161012020772068806980070F
:1023D000204602D0FFF7E7FF04E000F098F820461F
:1023E00000F096F8257720680169C943490717D49A
:1023F000C168C943490713D46FF004010161022089
:1024000020772068806910F4407F204602D0FFF7D3
:10241000CAFF04E000F07BF8204600F079F8257749
:1024200020680169C943090716D4C168C94309076F
:1024300012D46FF008010161042020772068C06980
:102440008007204602D0FFF7AEFF04E000F05FF8FF
:10245000204600F05DF8257720680169C943C90668
:1024600017D4C168C943C90613D46FF010010161C4
:10247000082020772068C06910F4407F204602D0F1
:10248000FFF791FF04E000F042F8204600F040F82A
:10249000257720680169C943C90708D1C168C943C4
:1024A000C90704D1891E0161204600F033F8206875
:1024B0000169C943090609D4C168C943090605D49D
:1024C0006FF0800101612046FFF736FE2068016948
:1024D000C943490609D4C168C943490605D46FF008
:1024E00040010161204600F01FF820680169C943DE
:1024F00089060BD4C168C943890607D46FF020014F
:1025000001612046BDE87040FFF717BE70BD7047FF
:102510007047000000680349884201D1FEF7E4BE1D
:102520007047000000100040704770B5040004D0F0
:1025300094F83D00002510B106E0012070BD84F83C
:102540003C50204600F022F8242084F83D0020680A
:10255000C16821F40051C160204600F059FF206895
:10256000016921F4904101612068416921F02A014B
:1025700041612068C16841F40051C1602564202098
:1025800084F83D0084F83E00002070BD10B586B090
:10259000044614216846FDF7CFFE1449206888429E
:1025A00021D113480021026842F010020260006845
:1025B00000F0100005900E481438026842F0010245
:1025C0000260006800F0010005904FF4C0600090C8
:1025D0000220CDE901010320039007200490694601
:1025E0000448FEF7FFF906B010BD000000100140DE
:1025F00044380240000002402DE9F04707460068D9
:102600000E4600EB4114D4F808054FF004094207C8
:1026100001EB410000EBC6004FF0050A4FF0100837
:1026200007EB800508D5C4F80895D4F80C0540F0F0
:102630000200C4F80C0553E0D4F80805C0050DD518
:102640004FF48070C4F80805072085F86100D4F8BD
:102650000C0540F00200C4F80C0529E0D4F8080588
:10266000800601D5202039E0D4F8080501074FF095
:1026700008000AD5D4F80C1541F00201C4F80C1575
:1026800085F861A0C4F808850FE0D4F8081549055D
:1026900012D5D4F80C1541F00201C4F80C1585F8D8
:1026A0006100C4F808854FF48060C4F8080531461D
:1026B000386801F0CEFF13E0D4F8080500060FD506
:1026C000D4F80C0540F00200C4F80C05062085F88B
:1026D00061003146386801F0BCFF8020C4F808056D
:1026E000D4F80805800510D5D4F80C0540F0020098
:1026F000C4F80C05314604F5A164386801F0A9FF5F
:102700004FF400702060BDE8F087D4F808054FF062
:102710000001C0074FF001024BD0386930B1A86CFE
:10272000D4F81035C3F31203C01A286585F8612068
:10273000E965C4F8082595F83F0030B1022804D0B7
:10274000032811D0012818D023E0D4F80C0540F05C
:102750000200C4F80C05314604F5A164386801F0A4
:1027600078FFC4F8008014E0D4F8000540F0005071
:10277000C4F8000585F8602007E085F8602095F82A
:10278000540080F0010085F8540031463846FEF7C9
:10279000C1FA3869012806D1B5F84010A86CB0FB21
:1027A000F1F0C007AFD015F8540F80F00100287089
:1027B000A9E7D4F8080580073BD5D4F80C0520F02C
:1027C0000200C4F80C0595F86100022301280AD024
:1027D00005280BD006280CD008280AD003280FD0D3
:1027E000072818D01CE085F8602019E085F860A063
:1027F00016E0E86D401CE865022801D9E9650DE0A6
:1028000085F86030D4F8000520F0804040F00040AA
:10281000C4F8000504E0E86D401CE86585F86090A8
:10282000C4F8083595F8602031463846FEF772FA4C
:1028300069E7D4F80805C006BAD595F83F00032823
:1028400003D020B1022802D011E0E96505E0E96576
:10285000386960B9032085F86100D4F80C0540F0B0
:102860000200C4F80C053146386801F0F2FEC4F8E5
:10287000088548E72DE9F047026802EB4114D4F8D7
:10288000082553074FF0040209D5C4F80825D4F8E9
:102890000C0540F00200C4F80C05BDE8F087D4F840
:1028A000083501EB41079E0607EBC1054FF0000319
:1028B00000EB85054FF0020C15D52022C4F8082541
:1028C00095F83D20012AE8D185F83D3085F860C0B3
:1028D000D4F80C2542F00202C4F80C250068BDE8CB
:1028E000F04701F0B6BED4F80865B6050DD5D4F8AA
:1028F0000C2542F00202C4F80C25006804F5A1641E
:1029000001F0A7FE4FF400706DE0D4F808654FF0B9
:1029100040075FEAC6784FF0010617D0EB65D4F8A0
:102920000825520603D585F83D60C4F80875D4F82B
:102930000C2542F00202C4F80C25006804F5A164DD
:1029400001F087FE266085F86160A6E7D4F8088567
:102950005FEA486811D585F8612085F83D60EB6530
:10296000D4F80C2542F00202C4F80C25006804F5E6
:10297000A16401F06EFE27608FE7D4F808754FF070
:1029800005095FEA07784FF008070DD5C4F8087508
:10299000D4F80C2542F00202C4F80C25006801F0BE
:1029A00058FE85F8619078E7D4F808854FF0100A52
:1029B0005FEAC86819D50322EB6585F8612095F8B0
:1029C0003D2022B995F83C200AB985F83D60D4F83D
:1029D0000C2542F00202C4F80C25006804F5A1643D
:1029E00001F037FE5046206057E7D4F808855FEACB
:1029F00008681FD5066956B1EE6D761CEE65022E8D
:102A000012D9EB6585F86020FEF784F90EE0062206
:102A100085F86120D4F80C2542F00202C4F80C2598
:102A2000006801F016FE01E085F860C08020C4F85F
:102A3000080532E7D4F808855FEA485812D5D4F87B
:102A40000C2542F00202C4F80C25006804F5A164CC
:102A500001F0FFFDC4F800A04FF48060206085F80D
:102A600061701AE7D4F80875BF0785D5D4F80C75DE
:102A700027F00207C4F80C7595F86170012F0AD091
:102A8000032F24D0042F22D0052F23D0062F24D0AB
:102A9000082F22D034E085F8606095F83F20022AA4
:102AA00001D0032A2CD10269012A09D1EA6C3AB378
:102AB000B5F840301A44521EB2FBF3F2D2071FD0D1
:102AC00095F8552082F0010285F8552018E085F828
:102AD00060C015E085F8609012E0EE6D761CEE6542
:102AE000022E03D9EB6585F8602009E085F860C007
:102AF000D4F8002522F0804242F00042C4F80025BC
:102B0000C4F808C595F86020FEF704F9C5E67CB561
:102B100004680546D4F840040190D4F8400420F03D
:102B20002E0000900198800709D50198C00702D0B7
:102B30002846FEF783F8009840F0020000900198C4
:102B4000000724D5009840F0080000900198400745
:102B50001AD5A869022803D0E86801280CD00FE034
:102B60000198C0F341400228286803D0012101F0F8
:102B70006BFF05E00221FAE74EF66020C4F804047A
:102B80002846FEF731FA02E02846FEF729FA0198B6
:102B90008006009802D540F020000090C4F8400460
:102BA0007CBD2DE9F041024600680646016AC1F38A
:102BB000434301F00F07C1F30A15022B31D1002D59
:102BC0002FD007EB470101EBC70102EB8104616CD9
:102BD000002926D0226DE36C2A449A4223D82A4643
:102BE00001F051FF606C28446064206D284420652A
:102BF00006EB4710D0F81015B4F84020C1F3C941D6
:102C0000AA420ED100290CD0D0F8001521F0804145
:102C100041F00041C0F8001514F8540F80F0010095
:102C20002070BDE8F081042084F86000F9E7FEE739
:102C30000148FEF7DFBB000080010020F0B503680B
:102C40008C88DD68C5F30B452C442504882404EBEF
:102C5000C2141E5906F470461E5103680F68DE68E0
:102C6000C6F30B46761C3E442E431E5104688B89E6
:102C7000E568C5F30A052B441D048C2303EBC2133E
:102C8000E65806F47046E65004688F68E668C6F3B6
:102C90000A06761C3E442E43E6509423046803EB58
:102CA000C213E55825F00705E55005680C69EC509E
:102CB00091F831300C7E1F0226069C24056804EB37
:102CC000C21491F8323055F804C04FF0000C45F8AA
:102CD00004C091F8305046EA03433D431D43036866
:102CE0001D519823046803EBC213E55825F0FF0536
:102CF000E55005684C69EC50A023046803EBC2134F
:102D0000E55840F20776B543E550D1E907452C4335
:102D10000568EC50AC23046803EBC213E55844F893
:102D200003C005684C6AEC500B698BB3012B32D0A1
:102D3000042B32D0022B30D0032B2ED0072B2CD0DB
:102D40000123B024056804EBC2142E5906F0E026D6
:102D50002E51D1E90065AD1B0E8D5D435E43ED1C28
:102D600045EA064305682B51B423046803EBC213FC
:102D7000E5586FF30A05E5500468C96AE150006838
:102D8000842101EBC211425842F001024250F0BDD1
:102D9000FFE70423D5E70323D3E70223D1E70000AD
:102DA0000D4810B50B490160002141608160C16090
:102DB0008162C16201634163FDF747FD08B172B6EC
:102DC000FEE701210448FDF75FFC002801D072B640
:102DD000FEE710BD00B00240EC00002020B1002250
:102DE00010210248FDF71EBF0122F9E7000802404A
:102DF00000B587B01C216846FDF79EFA15481449B6
:102E000000F1080C0160012141600021042210231F
:102E10008CE80E00402343614FF4C073C0E90631D3
:102E20005302C0E90831D1028162022007218DE8F6
:102E3000070003910321CDE9041006906946054877
:102E4000FFF7C4F8002801D072B6FEE707B000BD56
:102E5000400100A00C0300202DE9F04F87B01421A1
:102E60006846FDF769FA54480024016841F00401FE
:102E70000160016801F004010591016841F0200141
:102E80000160016801F020010591016841F08001B5
:102E90000160016801F080010591016841F00101C4
:102EA0000160016801F001010591016841F0020132
:102EB0000160016801F002010591016841F04001E3
:102EC0000160016801F040010591016841F01001C5
:102ED0000160016801F010010591016841F00801ED
:102EE00001600068DFF8D49000F00800059000222F
:102EF00016214846FDF796FEDFF8C4A00022802187
:102F00005046FDF78FFEDFF8BCB04FF4405700226B
:102F100039465846FDF786FE4FF4C0480022414628
:102F20002948FDF77FFE162000900125CDE90154C8
:102F3000694648460394FDF755FD244E48F20700C4
:102F4000CDE90006694602945046FDF74BFD80200E
:102F50000090CDE90154694650460394FDF742FDC7
:102F60002020CDE90006694602944846FDF73AFD67
:102F70000420CDE90004694615480294FDF732FDAE
:102F8000E802CDE90004694658460294FDF72AFD9F
:102F90000097CDE90154694658460394FDF722FD98
:102FA000CDF80080CDE90154694607480394FDF748
:102FB00019FD07B0BDE8F08F30380240000802402C
:102FC00000000240000C02400018024000001210F5
:102FD00000040240134810B51149016012494160D4
:102FE00000214FF480428160C0E903124161816198
:102FF000C1610162FEF76CF808B172B6FEE700210C
:103000000848FEF724F808B172B6FEE7002105482B
:10301000FEF73EF8002801D072B6FEE710BD0000B2
:10302000005C00402C010020A086010010B58EB08D
:1030300034216846FDF780F9274826490024C0E975
:10304000001484600921C460C0E904410121816148
:103050001D21C1610321016240F20D11416240F264
:103060004311816240F21711C16240F247110163BE
:1030700080F8344080F8354080F83640FEF720FA7A
:1030800008B172B6FEE7F020CDE900404FF4A07120
:1030900002220294CDE90312FF22CDE905244FF468
:1030A000C0620792072208924FF05042CDE90A0110
:1030B0008DF8304009928DF831408DF83240002271
:1030C00069460548FEF76CF9002801D072B6FEE7A4
:1030D0000EB010BD00680140800100200F4810B5FF
:1030E0000D4901604FF48271416000218160C1602F
:1030F0004FF400720161C0E905121822C0E90721EE
:10310000416281620A21C162FEF783FF002801D07B
:1031100072B6FEE710BD00000050014028020020FA
:1031200010B586B0002417480094019402940394CB
:10313000049413490594C0E900144FF6FF71C0E9E7
:103140000241046144618461FFF740F808B172B63E
:10315000FEE74FF48050009069460A48FFF7B8F840
:1031600008B172B6FEE7049404A906480594FEF778
:10317000E5FF002801D072B6FEE706B010BD0000E2
:10318000000001408002002010B500220B490C48CD
:1031900000F040FE08B1FDF7DAF90A49084801F0ED
:1031A0003FF908B1FDF7D3F9054801F07CF9002893
:1031B00003D0BDE81040FDF7CAB910BDBD440008FA
:1031C00040030020AC000020FEE7FEE70148FDF7C9
:1031D000F2BD000024070020FFF7D6FF41F288343B
:1031E0000020FDF7E5F8204601F0ACFDF8E7FEE72A
:1031F00010B54FF0E020006903F0F6F8012803D085
:10320000BDE8104002F0B6BD10BD000030B59FB063
:1032100030216846FDF790F8142118A8FDF78CF8C6
:1032200030210CA8FDF788F823480024016841F0FC
:1032300080510160006800F080501D901F480168B7
:1032400021F4404141F4804101600068022500F40E
:1032500040401D9001200090000401908001CDE9C4
:103260000650042008904820CDE9090503200B9062
:103270006846FEF7F5FC08B172B6FEE70F20CDE90F
:1032800018054FF48050CDE91A40022118A81C946B
:10329000FEF7DCFB08B172B6FEE708200C90322086
:1032A0001594109012950CA8FEF7A6FA002801D0EC
:1032B00072B6FEE71FB030BD4038024000700040DB
:1032C0000248016841F470010160704788ED00E038
:1032D0000148FFF769B80000280A0020F0B502682D
:1032E000254C264D264E274F274B4FF0804CA042B1
:1032F00009D0604507D0A84205D0B04203D0B842FB
:1033000001D0984204D122F0700E4A6842EA0E02BF
:10331000A0421BD0604519D0A84217D0B04215D0AA
:10332000B84213D0984211D0184DA8420ED0184D73
:10333000A8420BD0174DA84208D0174DA84205D07F
:10334000164DA84202D0164DA84203D122F4407572
:10335000CA682A434D6922F080022A4302608A68C3
:10336000C2620A688262A04201D0984201D1096912
:10337000016301214161F0BD0000014000040040F3
:1033800000080040000C00400004014000400140E3
:10339000004401400048014000180040001C00406B
:1033A0000020004010B5846842EA032224F47F44E0
:1033B0000A432243826010BD826822F070020A43F1
:1033C00042F007018160704710B5036A046A24F077
:1033D00001040462846924F0F00444EA021423F036
:1033E0000A020A438461026210BD10B5036A23F029
:1033F000100303628369046A23F4704343EA0232D0
:1034000024F0A00343EA01118261016210BD0000B3
:1034100070B5044600680169E26821F44051114327
:1034200001612169A068E2690843616911430843A9
:103430002168CA6849F20C639A430243CA60206853
:103440004169A26921F44071114341613149206809
:10345000884202D03049884202D1FEF7C1FB01E028
:10346000FEF7AEFBE2690023192164253226B2F58E
:10347000004F626828D0A0FB0101930F9200FCF777
:1034800011FF0146B0FBF5F06FF01802504301EB5D
:10349000800006EB0010B0FBF5F000F0F002B1FB8D
:1034A000F5F002EB0012B1FBF5F06FF01803584392
:1034B00001EB800006EB0010B0FBF5F000F00F0010
:1034C00021681044886070BDA0FB010192185B4127
:1034D000FCF7E8FE0146B0FBF5F00201B1FBF5F0A8
:1034E0006FF01803584301EB800006EBC000B0FBFF
:1034F000F5F000F0F80002EB4002B1FBF5F05843A4
:1035000001EB800006EBC000B0FBF5F000F0070017
:10351000D6E70000001001400014014010B5002261
:103520004FF6FF7300EB8204B4F8844324040BD4F9
:103530009A4207D002F00F0300EB830041F40041F0
:10354000C0F88413D0B210BD521CD2B20B2AE9D3FA
:103550001A46F7E77FB51C46012501AE002300950A
:1035600086E80E0002232A46214600F090FD04B0B2
:10357000002070BD7FB51D4690F81D33089C03B137
:1035800000240123CDE90031CDE9022402230022E9
:10359000294600F07CFD04B0002070BD70B50446E3
:1035A000D0F87C03C16920464031FDF73BF80500A7
:1035B00004D1D4F8D423022120469047284670BD78
:1035C00070B50546D0F87C030026C469217839B16E
:1035D000284600F027F92178284600F0BDF926702A
:1035E000217B39B1284600F01DF9217B284600F0E7
:1035F000B3F92673617B39B1284600F013F9617B7A
:10360000284600F0A9F96673D5F87C03C06920B19B
:1036100001F0EAFAD5F87C03C661002070BDFEB562
:10362000022205460123114600F074F90646FF28E0
:1036300041D0022E3FD20146284600F0FFFED0BB0B
:10364000502001F049FBD5F87C130446C8612000E6
:1036500031D05021FCF770FE06EB860000EBC6006F
:1036600005EB400191F84E03020603D56070B1F8F6
:103670005003608161782846FFF750FF20700146B3
:1036800095F81D03638903228DE80D0095F81C331E
:103690006278284600F00CFD21780022284600F0D0
:1036A000D2FC00231A460A21284600F033F9FF28ED
:1036B00001D0022801D30220FEBD00EB800101EB06
:1036C000C00005EB400090F84E130A0604D5E173E4
:1036D000B0F85013618303E0A173B0F85013218355
:1036E00090F856130A0604D5E173B0F858036083C6
:1036F00003E0A173B0F858032083A17B2846FFF7AD
:103700000DFF6073E17B2846FFF708FF2073208BD5
:1037100095F81D1302260091CDE9016095F81C3340
:10372000A27B617B284600F0C3FC608B95F81D13DB
:103730000091CDE9016095F81C33E27B217B28469E
:1037400000F0B6FC002084F84C000246617B28465D
:1037500000F079FC217B0022284600F074FC002058
:10376000FEBD70472DE9F0410546D0F87C030127E6
:103770000026C4694FF0040894F84C0005284AD28A
:10378000DFE800F00305163B4200002743E021225A
:10379000A16C2A7420226A746E82AE8207222846A7
:1037A000EA8200F062F848B9022084F84C0032E066
:1037B00004F140012846FCF735FF20B101282AD04A
:1037C00084F84C8027E084F84C60A06C94F8441096
:1037D000027991421FD194F84610827991421AD110
:1037E00094F845104279914215D1216C00688142CC
:1037F00011D12846FFF7B5FF0DE02846FCF725FE5E
:103800002846FCF7E2FD06E00021284600F00FF80C
:1038100008B984F84C603846BDE8F0817047002054
:103820007047704710B500F033FB002010BD827860
:10383000012A07D10222027401224274002242822C
:103840008182C2820022114600F00FB87FB51C466B
:10385000012501AE0023009586E80E002A46214688
:1038600000F015FC04B0002070BD2DE9F0410446C5
:10387000012580782F464FF0030804F5787601285B
:1038800002D002281ED105E0A160A2812776022085
:10389000A0700EE0204600F01AF9050004D0032DB8
:1038A00002D0022D04D004E0A7700020207600E0B2
:1038B000A770C4F8E08300231A463146D4F8D80331
:1038C00001F0DAFA2846BDE8F0817FB51D4690F890
:1038D0001D33089C03B100240123CDE90031CDE95B
:1038E000022400231A46294600F0D1FB04B0002030
:1038F00070BD1FB500231446CDE900310822CDE983
:1039000002231A46214600F0C2FB04B0002010BD7D
:10391000FCF7E8BF70B50546002005F54E7500BF01
:1039200000EB800404EBC00405EB4404E67B0A349E
:103930008E4201D0FF2909D1A679964201D0FF2AF3
:1039400004D1E4799C4206D0FF2B04D0401CC0B2C5
:103950000228E5D3FF2070BD0B2907D200EB8100C0
:10396000B0F88413C1F30E01C0F88413002070472F
:1039700030B48578029C012D0FD141F08001017493
:103980000621417403214282B1EB122F02D140F291
:10399000094100E000218182C482224630BC1946E0
:1039A000FFF763BF0A8803781A440A800178084445
:1039B0007047F8B50E4600F11C05009104462B46F1
:1039C0004FF400720021FFF7D3FF070005D1324604
:1039D000294604F54E7000F075FB3846F8BD38B541
:1039E0000D460091044600F58E734FF4807200215D
:1039F000FFF7BEFF002839D194F81C1184F8261374
:103A000094F81D1184F82713B4F81E11A4F8281394
:103A100094F8201184F82A1394F8211184F82B13B8
:103A200094F8221184F82C1394F8231184F82D13A0
:103A3000082D1BD9B4F82411A4F82E13B4F82611BC
:103A4000A4F83013B4F82811A4F8321394F82A110A
:103A500084F8341394F82B1184F8351394F82C114E
:103A600084F8361394F82D1184F8371338BDF8B55F
:103A70001C461646009341F4407200F58E731D46B5
:103A80000021FFF775FF002814D16978032911D1AF
:103A900029788A1EA24200D814460021A2B2AD1C89
:103AA00004E06B5C891C06F8013B89B29142F8D3B3
:103AB00000213170F8BD01004FF0000004D0012951
:103AC00001D0022901D002207047012070472DE962
:103AD000F84F0446027E01260B2704F57871032572
:103AE00030464FF009084FF007094FF0050A4FF034
:103AF0000D0B00910C2A19D2DFE802F0BC060E2F44
:103B00003B4551646F7E8AA2627904F11001204620
:103B1000FFF7EFFE02202AE06179204600F018FA54
:103B2000012804D0042816D0022814D0A2E0207C5A
:103B3000E18A00F0800031B1802801D1257675E05E
:103B400084F818A072E0802802D184F818806DE013
:103B500084F818906AE0277668E0D4F8C403E0811E
:103B60002379A2892046A168FFF770FE0420207601
:103B700080E02179204600F0EBF90128E5D0052806
:103B80004ED1032652E000906379A2892046A168B5
:103B9000FFF79BFED4F8C403E0810620E7E76179D4
:103BA000204600F0D5F90128D2D0052804D00228FB
:103BB000C6D0042803D05DE00C202076E1E727760C
:103BC000022633E00022237911462046FFF73EFE0D
:103BD000D4F8C403E0810820C9E72179204600F029
:103BE000B7F9012804D00428B5D00528C9D041E090
:103BF00084F818B0002619E000900022637911467D
:103C00002046FFF762FED4F8C403E0810A20AEE745
:103C10006179204600F09CF9012804D0022894D054
:103C2000042898D026E0002684F818B0C4F8E053A1
:103C300000231A46D4F8D803009901F01DF919E0C1
:103C4000617E491CC9B26176022902D82076A07033
:103C500010E0D4F8D423062120469047002565764D
:103C600061792046FFF778FE21792046FFF774FE40
:103C7000257002263046BDE8F88F00002DE9FE4F82
:103C800001274178002505260446B9464FF00D0866
:103C900000F58E7200F5787A08290CD2DFE801F081
:103CA000042A3D6A728892AB08212046FFF797FEEE
:103CB00010B103280DD0A9E094F82D03A07184F869
:103CC000019094F81D130091CDE9015094F81C3334
:103CD00039E094F81E03401CC0B284F81E03032888
:103CE00018D861792046FFF737FE21792046FFF783
:103CF00033FE5BE012212046FFF771FEB0BB0220CD
:103D00003EE000BF94F81E03401CC0B284F81E03BE
:103D1000032842D984F8008078E00121204600F091
:103D200098FB10B1032822D070E00220FFF7F0FDCD
:103D300084F81C9303206070A07994F81D13CDE9DA
:103D400000154B46029021798022204600F0B0F900
:103D5000A07994F81D130091CDE9015094F81C331B
:103D600061790022204600F0A3F94FE010E084F8CA
:103D7000008033E009212046FFF71BFE40B90420F4
:103D8000607043E0B4F83A132046FFF712FE10B11A
:103D90000328B7D03AE0667038E061792046FFF733
:103DA000DBFD21792046FFF7D7FD657025702DE0FA
:103DB00094F83413062599B1FF232046FFF757FEE8
:103DC00070B108E094F83513072549B1FF23204668
:103DD000FFF74DFE10B1032802D017E0657015E023
:103DE0006570C4F8E06300231A465146D4F8D8033E
:103DF00001F042F80AE094F8361331B1FF2320466F
:103E0000FFF735FE08B1032800D100273846BDE88A
:103E1000FE8F000070B50E4604002DD084F8CC2330
:103E20000025C4F87C53C4F8805304F54874FCF7AB
:103E300065FBE57025706570A570A4F548740EB13A
:103E4000C4F8D46300220421102000F0E9FFC4F874
:103E5000D8030D4809A10246016080214161182163
:103E600081612146094801F03BF8C4F8DC03204693
:103E700000F082F8002070BD022070BD555342480A
:103E80005F517565756500004C970020FD43000883
:103E900010B5D0F8D003FCF7F0FEBDE81040FFF7F6
:103EA0000ABE10B5012180F82013002280F82123DA
:103EB00080F82223C0F8E013D0F8D84300F57871D9
:103EC0001346204600F0D8FF002010BD70B5012534
:103ED000044680F82153002084F8200384F823034B
:103EE000204600F0CBF821792046FFF735FD6179B7
:103EF0002046FFF731FDC4F8E05300231A4604F5CD
:103F00007871D4F8D80300F0B7FF002070BD10B569
:103F100090F8CC0310B90846FEF760FFC820FCF704
:103F2000E1FC002010BDD0F8D003FCF79EBE10B518
:103F30000124D0F8D003FCF78CFE20B1012805D075
:103F4000022803D101E0002400E00224204610BD35
:103F5000D0F8D003FCF780BED0F8C413491CC0F8D9
:103F6000C41301780B2905D1D0F87C13002901D0A6
:103F7000896908477047000010B5044690F8CC03E3
:103F8000F0B9104810490222C0F80043C4F8D00329
:103F900001600C2181600121C16000210161C0E943
:103FA00006210162C1624163FCF79CFF08B1FCF786
:103FB000CEFA0448FCF74AFE0146204600F040F8DD
:103FC000002010BD240700200000044010B501218E
:103FD000C0F8E013D0F8D843002300F578711A46F2
:103FE000204600F049FF002010BDFEB508AF97E85D
:103FF00070008DE87000D0F8D003FCF750FEBDE8EB
:10400000FE40FFF758BD002180F8231370470121BF
:1040100030B480F82313C0F8E013D0F8D84300F58B
:1040200078712046002330BC1A4600F025BF10B539
:10403000D0F8D003FCF7DCFFBDE81040FFF73BBD34
:10404000C0F8C4137047D0F8D00301EB410303EB71
:10405000C10100EB810090F83B1011B180F85420B1
:1040600001E080F855200020704710B5D0F8D0034B
:10407000FCF7C5FFBDE81040FFF71DBD10B5D0F837
:10408000D003FCF7D2FFBDE81040FFF714BD2DE9C7
:10409000FF410DF1280898E8F0008DE8F000D0F815
:1040A000D003FCF73BFE04B0BDE8F041FFF703BDD1
:1040B000FEB508AF97E870008DE87000FFF795FF38
:1040C0000020FEBD2DE9F84105460B782B704B789A
:1040D0006B704B886B800B792B714B796B718B7983
:1040E000AB71CB790846EB710027097A2972092A4E
:1040F00054D90921ADF800104BE06946FFF752FC96
:104100004178042943D107EB870101EBC70105EB97
:104110004108017888F80A10417888F80B108178F6
:1041200088F80C10C17888F80D10017988F80E1005
:10413000417988F80F10817988F81010C17908F159
:104140000A0488F81110017A2172002615E06946E8
:10415000FFF728FC417805290FD108EBC60102784A
:104160000A7542784A7582788A75C278CA758288DB
:104170000A838279761C8A76F6B22179B14204D913
:104180006A88BDF800108A42E1D87F1CFFB2022F76
:1041900004D26988BDF800209142AED8BDE8F8810C
:1041A0002DE9FE4F022204468DF8002094F82113D9
:1041B0000020012901D103212170237801260D2738
:1041C000002504F578794FF005084FF0080A0C2B0C
:1041D0007CD2DFE803F0061636F0EC6BD1888F98BE
:1041E000A5E694F82003002870D02670C820FFF7B9
:1041F0008FFB2046FFF71BFF84F81C53C4F8C853FD
:10420000F3E094F8230301280ED0D4F8C803B0F5E6
:104210007A7F0FD994F81F03401CC0B284F81F03A3
:10422000032805D92770E0E084F81F532270DCE0F2
:104230002570DAE00A30C4F8C8030A20FFF768FBEB
:10424000D3E0D4F8D42312B104212046904764204F
:10425000FFF75EFB2046FFF76AFE84F81D0384F833
:10426000008000212046FFF759F960718021204627
:10427000FFF754F920710146A07994F81D230092AC
:10428000CDE9015094F81C3380222046FFF710FF3F
:10429000A07994F81D130091CDE9015094F81C33D6
:1042A000617900222046FFF703FF9EE02046FFF7DA
:1042B000E5FC8DF800009DF8000038B984F824531F
:1042C00094F83703012804D0072000E03EE0207076
:1042D00062E05046F9E700231A464946D4F8D8036D
:1042E00000F0CAFD63E0D4F8D4237AB3012120465C
:1042F0009047EEE794F83D13204600F0B8F8C0BBB5
:104300000920207071E094F83F034FF00A05800601
:104310008ED50121204600F0B8F8002888D064E04E
:10432000D4F8801321B3C4F87C5394F8471300BF2A
:1043300004EB8002D2F8782312798A4207D104EB89
:104340008000D0F87803C4F87C0305E02FE0401C1F
:1043500010F0FF00ECD0284660B181682046884705
:1043600040B906202070D4F8D4230321204690477A
:1043700012E03AE027700FE0D4F87C030028F9D06F
:104380000169204688478DF800009DF8000030B193
:104390009DF800000228EDD0C4F8E0839BE70B20D5
:1043A00093E7D4F87C0310B1416920468847002088
:1043B000BDE8FE8FFFE784F821532046FCF79EF806
:1043C000D4F87C0320B1C16820468847C4F87C53E8
:1043D000D4F8D42312B105212046904794F8220343
:1043E000012805D02046FFF740FEC4F8E06372E7DD
:1043F00084F82253204600F056F8F6E704464FF0C2
:10440000FF3600F57875334600222946D4F8D803E4
:1044100000F0D4FC0028F6D12046FFF7C1FEF2E7F9
:10442000002211B1D0F8803313B102221046704738
:104430000123C0F88033C0F87813F7E70246002064
:1044400092F83C338B4202D982F824137047022041
:1044500070478278012A06D1002202740523437432
:1044600041828282C28200221146FFF7FEB9827821
:10447000012A06D1002202740923437441828282F8
:10448000C28200221146FFF7F0B98278012A06D1D4
:10449000002202740323437441828282C28200227A
:1044A0001146FFF7E2B910B50446FFF7DEFD012122
:1044B0002046FFF72CFD002010BD000001290AD086
:1044C0000548022906D0042903D0052903D1032178
:1044D00000E00121017070471000002070B5044613
:1044E00006990A9E049D0D98012916D0E06840F0B7
:1044F0004000E060204600F02BF8A16B1EB321F4D1
:104500008031A163012D07D1A16841F00601A160AE
:10451000A16841F02001A16070BDA16B21F4803140
:10452000A163E168094A1140E160E16821F44011AA
:10453000E160012803D1E06840F48010E06020468B
:1045400000F006F8DEE741F48031DAE7BFFFBDFF97
:1045500001220C4902E0521C8A420BD80369002B4D
:10456000F9DA026942F001020261012204E0521C00
:104570008A4201D9032070470369DB07F7D1002085
:1045800070470000400D0300816821F00101816047
:104590000020704700EB4110064AC0F81025D0F803
:1045A000001521F0804141F00041C0F800150020C5
:1045B000704700000000088008B5D0F8402422F0C1
:1045C0002E020092D20405D4012909D1009941F4A8
:1045D000805103E021B9009921F48051C0F84014C2
:1045E000002008BD816841F0010181600020704712
:1045F000002110220261054A491C914201D9032081
:1046000070470369DB06F7D400207047400D0300B4
:104610000022202343EA811101610549521C8A428C
:1046200001D90320704703699B06F7D40020704727
:10463000400D0300D0F8080480B2704708B5D0F8E8
:1046400040040090C0F3414008BD406900F0010003
:10465000704710B500EB4111D1F80025D1F80035B5
:10466000C2F381428468DB0FA40600D51BB34FF46C
:104670007A736AB1022A0BD0D1F8002542F0804249
:10468000C1F80025D0F8100410F47F0F31D00CE0F1
:10469000D1F8002542F08042C1F8002582689206D8
:1046A00009D4C06A10F47F0F07D0D1F8000540F09C
:1046B0000040C1F80005002010BDD1F8000520F031
:1046C0000040C1F80005D1F8000540F00040C1F8F5
:1046D0000005D1F8000520F40040C1F800050120D4
:1046E00002E0401C9842E6D8D1F80025002AF8DB09
:1046F000E1E7D1F8000520F00040C1F80005D1F84D
:10470000000540F00040C1F80005D1F8000520F494
:104710000040C1F80005012002E0401C9842CAD8C0
:10472000D1F80025002AF8DBC5E700002DE9F043A9
:104730001E46DDE90785002700EB41147B1EDDF8EE
:104740002490C4F80835D5B1012D33D0022D16D0F0
:10475000032D28D05FF00107D0F8183401F00F0CBA
:10476000012101FA0CF10B43C0F81834816941F0C2
:104770000071816111062AD54FF4004128E040F212
:104780009D43C4F80C35130605D500BFD4F80C358D
:1047900043F4807318E0C36BDB05DDD5D4F80C352A
:1047A00043F0600310E040F29D63C4F80C3513063B
:1047B000ECD4D1E740F22523C4F80C351306CBD551
:1047C000D4F80C3543F4C073C4F80C35C4E70021A9
:1047D000FFF734FFB8F1020F04D1022802D04FF4E2
:1047E000003000E000204FF0FE5303EA86534FF400
:1047F000F04606EAC22213434FF4402202EA854201
:104800001343C9F30A0213430B430343C4F80035AF
:10481000032D05D1D4F8000540F00050C4F8000580
:104820003846BDE8F083D0F8140480B27047F8B57C
:104830004C78C56B4FF48073ED0515D50D799DB996
:10484000012A01D06AB10FE0CD790DB1022D0BD153
:1048500000EB4415D5F80C6526F07006C5F80C651C
:1048600002E04D79012D0DD04E697EB10D89771989
:104870007F1EB7FBF5F7BFB29F4208D91F462B0238
:104880000B6104E02146FFF785FE6EE00127CB783F
:104890001BB10B897B430B6101E033460E61C3F30F
:1048A00012056FF0604303EAC7431D438B7A4FF054
:1048B000C04606EA43731D4300EB4413C3F810558A
:1048C00012B1CC68C3F81445D0F80844D3F80055A9
:1048D00044F3000425F00055C3F80055D3F8005503
:1048E000641C45EA4474C3F80045D3F8004524F03D
:1048F00080440094CC78002C009C02D044F4004406
:1049000001E024F4004444F000440094C3F800455E
:104910005ABBCA784ABB4A693AB3CB7933B1012B47
:104920000FD0022B02D0032B17D10AE0D21CC36A8E
:10493000C2F38F029BB293420FD2826942F02002EF
:104940000AE0D21CD0F81034C2F38F029BB293421B
:1049500003D2826942F080628261002200928A8AD8
:1049600093B24A78C96800F00CF90020F8BD000045
:104970002DE9F0410025DDF8188017460446C0F8FF
:10498000005E806B40F40010A063A06B20F4002058
:10499000A063A06B20F48020A063E06BC00501D56C
:1049A000012B04D0D4F8000420F0040103E0D4F873
:1049B000000440F004012046C4F800141021FFF761
:1049C00027FE2046FFF714FE0020461E07E000BF2A
:1049D00004EB4011C1F80865C1F80C55401C874232
:1049E000F6D801212046FFF7E7FDC820FBF77AFF44
:1049F000A5616661E06BC00506D54FF4007060628A
:104A00000C48A0620C4804E0802060620B48A06261
:104A10000B48C4F80001B8F1000F03D1A06940F0C1
:104A20001000A061A06907490843A0610020BDE80B
:104A3000F0810000000200010003E000800060003F
:104A4000E0004000080020A3D0F8002422F0030278
:104A5000C0F80024D0F8002401F003031A43C0F882
:104A60000024012902D0022903D006E04BF6803150
:104A700001E041F27071C0F80414002070474169F0
:104A8000806908407047D21C10B59308002200F5D9
:104A9000805002E00468521C10C19A42FAD30846C2
:104AA00010BD38B50446D0F8400420F02E00009028
:104AB00040F48070C4F84004642004F58864FBF777
:104AC00011FF009820F4807020600A20FBF70AFF95
:104AD000002038BD10B5C26822F0C042C260012972
:104AE00002D029B1012010BDC16841F0005102E09F
:104AF000C16841F08041C1603220FBF7F3FE002025
:104B000010BD000030B504468068002520F001008B
:104B1000A06010212046FFF77BFD2046FFF768FDCF
:104B20005FF0000004EB4011D1F8002522F0802254
:104B300042F08042C1F80025401C0F28F2D9002025
:104B40004FF47A7304EB4011D1F8002522F40042AF
:104B500042F04042C1F800256D1C9D4203D8D1F8B7
:104B60000025002AF8DB401C0F28EBD94FF0FF305E
:104B7000C4F814046061A06840F00100A060002047
:104B800030BD10B5029C64B9DB1C9C0800EB023000
:104B9000002300F5805002E004C902605B1CA342C0
:104BA000FAD3002010BDFEE70907090E002804DB38
:104BB00000F1E02080F80014704700F00F0000F1D1
:104BC000E02080F8141D704702E008C8121F08C1D9
:104BD000002AFAD170477047002001E001C1121F7E
:104BE000002AFBD17047000010B5002821D0114BDE
:104BF0000022001F196803E0814203D80A46496871
:104C00000029F9D152B11368841A9C4204D100687A
:104C100018441060104602E0506000E0186039B19E
:104C200002680B1A934203D10B681A440260496868
:104C3000416010BDE4000020FCF75EFBFEF7E6FAE1
:104C4000FEF70AF91E491D4808600846FBF7F5FC07
:104C500008B172B6FEE7FEF7A3F8FEF7C9F8FEF753
:104C6000B9F9FEF7E3F9FEF739FAFEF759FA1648F3
:104C700014490C2201604FF4E13141600021816050
:104C8000C160C0E904128161C161FDF74EFC08B149
:104C900072B6FEE700F064F80C4A00210C4800F000
:104CA0001FF9074C094A083C2432206000210948BA
:104CB00000F016F9606000F065F8FEE70030024091
:104CC0000800002000100140C802002054670008BE
:104CD000D9310008EF310008F0B50B30154D20F048
:104CE00007010024144A0FE003688B420BD38B4268
:104CF00005D95E1A43184768C3E9006700E04368B6
:104D0000136002C004E0021D10680028ECD12046A8
:104D1000002802D1286808B10020F0BD064A0748E3
:104D20001060074A121A22F00702C0E9002401208D
:104D30002860D7E7E8000020E400002074970020F6
:104D40007099002010B5EFF3058111B16FF00504E3
:104D500003E0002408B100F099FE204610BD0000D9
:104D6000EFF3058010B16FF005007047044801684B
:104D700011B14FF0FF3070470121016000207047F2
:104D80007C00002010B5EFF3058010B16FF0050036
:104D900010BD08480168012902D04FF0FF3010BD56
:104DA000054A002182F8141D0221016000F0D6FEA0
:104DB000002010BD7C0000200BE000E0F8B51D468F
:104DC0006FF003026FF002064FF00004EFF305836B
:104DD000A3B1F0B1E9B1E5B9002200926A4601F051
:104DE00023FA012817D10098B0B10C494FF0805038
:104DF0000860BFF34F8FBFF36F8F0DE048B141B133
:104E00002A4601F075F9012806D025B16FF001049A
:104E100002E0144600E034462046F8BD04ED00E010
:104E2000F8B514464FF00005EFF3058212BB08B346
:104E300001B3A4B1D4E9023263B1502A1AD3226972
:104E4000C2B1676900FB01F6B74213D3009500F0C9
:104E5000C8FF07E072B9226962B9626952B90022DB
:104E600000F09EFF050005D00CB1216800E0002194
:104E700000F0D6FD2846F8BDF8B51D466FF00302D8
:104E80006FF002064FF00004EFF30583ABB100B3FF
:104E9000F9B1F5B90022134600926A4601F0C8F84C
:104EA000012818D10098B8B10C494FF08050086023
:104EB000BFF34F8FBFF36F8F0EE050B149B10023A6
:104EC0002A4601F005F8012806D025B16FF001044B
:104ED00002E0144600E034462046F8BD04ED00E050
:104EE0002DE9FF414FEA01034FF00005EFF3058183
:104EF000039549BB40B38027182100244AB31668A4
:104F000006B1344696691EB13146761E382E02D25D
:104F10001679F60703D0002004B0BDE8F081566989
:104F200006B1B708D2F808C0BCF1000F0DD0D568A3
:104F3000602D18D312693AB136B18DE806103A46A1
:104F4000214601F026FA03900DE0D6685EB9126999
:104F50004AB903AACDE90012BAB2214601F0ECF930
:104F6000012800D003950398D6E700002DE9F04111
:104F7000134C0F460546E6682068001D00F04EFC05
:104F8000681C07D137B12168BDE8F0410D48091D03
:104F900000F097BC20683544B5424560216805D2D1
:104FA000A06BBDE8F041091D00F073BC606B091DEA
:104FB00000F06FFCA06A854200D2A562BDE8F081D6
:104FC0002C000020600F00202DE9F041054600F084
:104FD00085FC2D4CA068401CA06020682B4F10B1B0
:104FE000606930B32BE02560A068012827D1002636
:104FF00006EB860007EB800000F03DFC761C382EA7
:10500000F6D3234800F037FC2148143000F033FC7D
:105010001F48283000F02FFC1D483C3000F02BFCCE
:105020001B48503000F027FC194860631430A0631F
:1050300005E02068E96AC06A884200D82560606A95
:10504000401C60626864E86A2169884200D9206176
:1050500000EB800007EB8000291D00F032FC00F01F
:105060005DFC606900280CD02068E96AC06A88424B
:1050700007D208494FF080500860BFF34F8FBFF34D
:105080006F8FBDE8F08100002C000020B00A0020E6
:10509000100F002004ED00E038B500F01FFC104CAC
:1050A0002068C8B90F4800F0E6FB0E48143000F045
:1050B000E2FB0C48E060143020610A4B0020F03B1A
:1050C000009003F1500210210A2000F08AFE2060B7
:1050D00010B105A100F0A4FCBDE8384000F01EBCF2
:1050E0006800002064100020546D72510000000020
:1050F00030B4026C0B46002A0BD0C1681144C16069
:105100008468A14201D30168C16030BC1846FBF736
:10511000FAB830BC70472DE9F041856B174604465C
:105120000026026C82B1C7B1E068FBF7ECF8E168D9
:10513000206C091AE1602268914202D2A168081A23
:10514000E060022F16D017E02068A8B9A06801F02F
:10515000C3F906460020A0600EE06068FBF7D3F8B4
:10516000216C606808446060A168884204D32068AC
:10517000606001E005B16D1E6D1CA5633046BDE8A1
:10518000F08110B5044690F85D0058B101280CD0AC
:1051900002280FD0502080F31188BFF34F8FBFF348
:1051A0006F8FFEE7206B00F0CDFB2046BDE810407E
:1051B00000F0C8BB10BD000010484FF4004142078A
:1051C00006D0C01D0D4920F00700411AC1F500416D
:1051D0000B4A00230144C2E900030839183A21F0C0
:1051E000070111604B600B600B1AC0E9001393605C
:1051F0004FF0004053605061704700004C17002092
:1052000098000020154E164CA6F29C474FF080588F
:10521000DFF8509012E000BF00F060FBF068C56856
:10522000281D00F0FBFAA068401EA0606068401EC8
:10523000606000F073FB2846FFF7A3FF606800285A
:10524000EAD13868012805D9C9F80080BFF34F8F2B
:10525000BFF36F8F00F00CFBF0E700004C0F002055
:105260002C00002004ED00E070B51D46049C51B1F7
:10527000C4F80020C4E90F010121204600F0E4FD3C
:1052800084F84C5070BD2460F4E700002DE9F05F15
:105290008846DDE90B941546834691009A460A9E9E
:1052A000A522206BFBF741F86FF00301206B01EBA7
:1052B0008501084420F00707780707D0502080F3C5
:1052C0001188BFF34F8FBFF36F8FFEE70025B8F152
:1052D000000F0FD05FF00000221818F8001082F8BD
:1052E000341018F8001011B1401C1028F4D384F8C1
:1052F000435001E084F83450382E00D33726E6625C
:10530000C4E91365201D00F0C1FA04F1180000F093
:10531000BDFA2461C6F138006462A0616565A565C7
:1053200084F85C5052465946384600F061FA2060D5
:10533000B9F1000F01D0C9F80040BDE8F09F0000AE
:1053400030B5114900E011460A688242FBD34B6830
:105350005C18844203D1406818444860084643689A
:105360001C18944209D1084C183C2468A24209D068
:1053700052681A4442600A6812680260814200D092
:10538000086030BD0460F9E79800002070B5002483
:1053900041600B4D0061914206D8D11A8269914259
:1053A00006D2011D286907E09A4203D2994201D32F
:1053B000012403E0011DE86800F06BFA204670BD8F
:1053C0006800002010B5044600F088FAA06B28B1F0
:1053D0005FF0000400F0A2FA204610BD0124F9E7B6
:1053E00030B589B03C4D6EE00498002806DADDE95E
:1053F0000601059A90470498002864DB069C6069C2
:1054000010B1201D00F00AFA03A800F0D7F80246F8
:1054100004980A2857D2DFE800F00505052D334A25
:1054200005052D3394F8280040F0010084F8280089
:105430000599A069059B01442046FFF7A7FF68B3C3
:10544000216A2046884794F8280040073BD5002071
:1054500000900598A169002342181946204601F0E2
:1054600045F9D8B9502080F31188BFF34F8FBFF3AF
:105470006F8FFEE714F8280F20F00100207022E063
:1054800094F8280040F0010084F828000598A061F5
:1054900028B1811813462046FFF778FF13E050200B
:1054A00080F31188BFF34F8FBFF36F8FFEE794F83F
:1054B0002800810703D4204600F044FA03E020F0DE
:1054C000010084F82800002204A9286800F010FEDA
:1054D000002889D109B030BD680000202DE9FC41C9
:1054E0000F46054600F07EFB01A800F067F8044671
:1054F000019818B101F068F8BDE8FC81254EAFB104
:1055000030690068D0B30027291B3A46306800F0A4
:105510009BFA01F059F80028EED11F494FF0805056
:105520000860BFF34F8FBFF36F8FE5E7A542EBD85D
:1055300001F04AF8F0682746C068C468201D00F0F2
:105540006DF994F82800410719D5A0692B46411937
:105550003A462046FFF71AFFA8B10020034601464D
:1055600000902A46204601F0C1F860B9502080F32F
:105570001188BFF34F8FBFF36F8FFEE707E020F076
:10558000010084F82800216A20468847B4E70127F3
:10559000BAE700006800002004ED00E00648416B17
:1055A000096829B1416BC968C96849688162704757
:1055B0004FF0FF31FAE700002C00002070B50546DF
:1055C00000F020FF064E0446B068844203D200F08B
:1055D00009F8012000E0002028602046B46070BD7A
:1055E00068000020F8B5194D20E0C068C46806685E
:1055F000201D00F013F9216A2046884794F82800FE
:10560000400713D5A0693044B04206D924616060D8
:10561000211DE86800F03DF908E00020034601463E
:1056200000903246204601F061F838B1E868016820
:105630000029DAD12969C5E90310F8BD502080F3AB
:105640001188BFF34F8FBFF36F8FFEE76800002014
:1056500008484068401C4FF0500080F3118804D087
:10566000BFF34F8FBFF36F8FFEE7BFF34F8FBFF3D3
:105670006F8FFEE7A0000020074CE068016841B191
:10568000C0680021D0F80000FFF728FFFFF7A8FE50
:10569000F3E701210020F7E7680000202DE9F04141
:1056A000044600F01BF994F9455004F1240609E082
:1056B000606A48B1304600F04FFF08B100F014FABC
:1056C0006D1E6DB2002DF3DC4FF0FF3684F845609F
:1056D00000F024F900F002F994F9445004F11007A5
:1056E00009E0206948B1384600F036FF08B100F003
:1056F000FBF96D1E6DB2002DF3DC84F84460BDE84B
:10570000F04100F00BB900002DE9F04105460027FB
:1057100000F068FA354E306808B9FFF74DFD706942
:10572000054216D1ADB1083568070ED005F0070067
:10573000C0F108000544680707D0502080F31188A5
:10574000BFF34F8FBFF36F8FFEE715B170688542CF
:1057500002D900F039FF39E02448183001460C68BE
:1057600001E020460C466168A94202D22168002966
:10577000F7D131688C42ECD007682168016060681D
:105780000837411B10290ED96019420707D0502055
:1057900080F31188BFF34F8FBFF36F8FFEE7416037
:1057A0006560FFF7CDFD61687068401A7060B2688F
:1057B000904200D2B060706901430020C4E900014A
:1057C000F068401CF06000F0FFFE0FB900F051F8E7
:1057D000780707D0502080F31188BFF34F8FBFF3B5
:1057E0006F8FFEE73846BDE8F081000080000020A2
:1057F00010B5031F4FF080741C601B1F21F00101C6
:105800001960191F044B0B6014390A60091F6FF0EF
:10581000020244380A6010BD51560008D0E9013236
:1058200001699A60D0E901235A604A68824201D135
:1058300082684A60002202610868401E08600868A9
:1058400070470000034B036003F160000860802094
:10585000106070478C100020044B036003F160005F
:1058600008604FF48070106070470000EC12002058
:1058700070477047704700F108014FF0FF32C0E9F0
:105880000112C160016100210160704700210161C6
:10589000704730B50B685A1C02D000F1080202E0D4
:1058A000026904E02246546825689D42FAD953688B
:1058B0004B6099608A60516008610168491C016011
:1058C00030BD42684A6093688B609368596091600C
:1058D00008610168491C016070470000502080F396
:1058E0001188BFF34F8FBFF36F8F0A494868401C80
:1058F000486001280CD10848006810F0FF0F07D05D
:10590000502080F31188BFF34F8FBFF36F8FFEE7F6
:1059100070470000A000002004ED00E0084948683E
:1059200028B1401E486001D180F311887047502093
:1059300080F31188BFF34F8FBFF36F8FFEE7000036
:10594000A000002070B500282AD0164DA0F1080450
:1059500060686969084207D1502080F31188BFF35D
:105960004F8FBFF36F8FFEE722683AB1502080F36C
:105970001188BFF34F8FBFF36F8FFEE788436060DE
:1059800000F030F960686968084468602046FFF7F5
:10599000D7FC2869401C2861BDE8704000F014BEA7
:1059A00070BD0000800000204FF0E0200021016168
:1059B000816105494FF47A720968B1FBF2F1491E21
:1059C00041610721016170472800002010B5FAF7F6
:1059D00053FC114910280ED300F1E02090F8F00399
:1059E0000A78904207D2502080F31188BFF34F8F7E
:1059F000BFF36F8FFEE709480068896800F4E06034
:105A0000884207D9502080F31188BFF34F8FBFF32E
:105A10006F8FFEE710BD0000A00000200CED00E03D
:105A200010B5084B002200BF53F832401CB1521C85
:105A3000082AF9D310BD43F8321003EBC2014860C5
:105A400010BD0000700A002070B515460E460446D1
:105A5000FFF744FF94F944100020491C01D184F859
:105A6000440094F94510491C01D184F84500FFF722
:105A700055FFA06B28B92A46314604F1240000F0F6
:105A800051F82046BDE87040FFF708BE10B502008F
:105A900014D00F48006B38B1502080F31188BFF349
:105AA0004F8FBFF36F8FFEE700F09CF80021104688
:105AB000FFF75CFA00F088FD002807D105494FF098
:105AC00080500860BFF34F8FBFF36F8F10BD000091
:105AD0002C00002004ED00E002490A6A0260C96857
